{
  "_format": "hh-sol-artifact-1",
  "contractName": "MyContract",
  "sourceName": "contracts/Lock.sol",
  "abi": [
    {
      "inputs": [
        {
          "internalType": "uint256",
          "name": "newValue",
          "type": "uint256"
        }
      ],
      "name": "setValue1",
      "outputs": [],
      "stateMutability": "nonpayable",
      "type": "function"
    },
    {
      "inputs": [
        {
          "internalType": "string",
          "name": "newValue",
          "type": "string"
        }
      ],
      "name": "setValue2",
      "outputs": [],
      "stateMutability": "nonpayable",
      "type": "function"
    },
    {
      "inputs": [],
      "name": "value1",
      "outputs": [
        {
          "internalType": "uint256",
          "name": "",
          "type": "uint256"
        }
      ],
      "stateMutability": "view",
      "type": "function"
    },
    {
      "inputs": [],
      "name": "value2",
      "outputs": [
        {
          "internalType": "string",
          "name": "",
          "type": "string"
        }
      ],
      "stateMutability": "view",
      "type": "function"
    }
  ],
  "bytecode": "0x608060405234801561001057600080fd5b50610543806100206000396000f3fe608060405234801561001057600080fd5b506004361061004c5760003560e01c80633033413b146100515780635d33a27f1461006f5780636ca0f3211461008d578063f043dc5d146100a9575b600080fd5b6100596100c5565b6040516100669190610371565b60405180910390f35b6100776100cb565b604051610084919061034f565b60405180910390f35b6100a760048036038101906100a291906102de565b610159565b005b6100c360048036038101906100be919061029d565b610163565b005b60005481565b600180546100d890610455565b80601f016020809104026020016040519081016040528092919081815260200182805461010490610455565b80156101515780601f1061012657610100808354040283529160200191610151565b820191906000526020600020905b81548152906001019060200180831161013457829003601f168201915b505050505081565b8060008190555050565b806001908051906020019061017992919061017d565b5050565b82805461018990610455565b90600052602060002090601f0160209004810192826101ab57600085556101f2565b82601f106101c457805160ff19168380011785556101f2565b828001600101855582156101f2579182015b828111156101f15782518255916020019190600101906101d6565b5b5090506101ff9190610203565b5090565b5b8082111561021c576000816000905550600101610204565b5090565b600061023361022e846103bd565b61038c565b90508281526020810184848401111561024b57600080fd5b610256848285610413565b509392505050565b600082601f83011261026f57600080fd5b813561027f848260208601610220565b91505092915050565b600081359050610297816104f6565b92915050565b6000602082840312156102af57600080fd5b600082013567ffffffffffffffff8111156102c957600080fd5b6102d58482850161025e565b91505092915050565b6000602082840312156102f057600080fd5b60006102fe84828501610288565b91505092915050565b6000610312826103ed565b61031c81856103f8565b935061032c818560208601610422565b610335816104e5565b840191505092915050565b61034981610409565b82525050565b600060208201905081810360008301526103698184610307565b905092915050565b60006020820190506103866000830184610340565b92915050565b6000604051905081810181811067ffffffffffffffff821117156103b3576103b26104b6565b5b8060405250919050565b600067ffffffffffffffff8211156103d8576103d76104b6565b5b601f19601f8301169050602081019050919050565b600081519050919050565b600082825260208201905092915050565b6000819050919050565b82818337600083830152505050565b60005b83811015610440578082015181840152602081019050610425565b8381111561044f576000848401525b50505050565b6000600282049050600182168061046d57607f821691505b6020821081141561048157610480610487565b5b50919050565b7f4e487b7100000000000000000000000000000000000000000000000000000000600052602260045260246000fd5b7f4e487b7100000000000000000000000000000000000000000000000000000000600052604160045260246000fd5b6000601f19601f8301169050919050565b6104ff81610409565b811461050a57600080fd5b5056fea26469706673582212204fa449cea6ec4c319a9837cba4a68377d839285196972bc23dc05ac0828c3a9564736f6c63430008000033",
  "linkReferences": {},
  "deployedLinkReferences": {}
}